:020000040800F2
:10000000102201205D020008434C00083F42000816
:10001000414C0008711E00082D5A00080000000025
:100020000000000000000000000000009D0100082A
:10003000311F000800000000F90100088154000889
:1000400077020008770200087702000877020008AC
:10005000770200087702000877020008770200089C
:10006000770200087702000877020008770200088C
:100070007702000877020008751E00087702000862
:10008000811E000877020008770200087702000846
:10009000770200087702000877020008770200085C
:1000A000770200087702000877020008770200084C
:1000B000770200087702000877020008770200083C
:1000C000770200087702000877020008770200082C
:1000D000770200082D59000877020008770200080F
:1000E000770200087702000877020008770200080C
:1000F00077020008770200087702000877020008FC
:1001000077020008770200087702000877020008EB
:1001100077020008770200084555000877020008BA
:1001200077020008770200087702000877020008CB
:1001300077020008770200087702000877020008BB
:1001400077020008770200087702000877020008AB
:10015000770200087702000877020008770200089B
:10016000770200087702000877020008770200088B
:1001700077020008770200087702000800000000FC
:100180007702000877020008DFF80CD000F068FC66
:1001900000480047B1A60008102201202C4B196826
:1001A0000868B0E8F04F80F30988BFF36F8F4FF015
:1001B000000080F3118870470000000008480068C4
:1001C000006880F308884FF0000080F3148862B65E
:1001D00061B6BFF34F8FBFF36F8F00DF00BF00BF6B
:1001E00008ED00E0DFF80C00016841F470010160E7
:1001F000704700BF88ED00E0EFF30980BFF36F8F19
:10020000134B1A681EF0100F08BF20ED108A20E96A
:10021000F04F106009B44FF0500080F31188BFF325
:100220004F8FBFF36F8F0BF00FFE4FF0000080F386
:10023000118809BC19680868B0E8F04F1EF0100F6B
:1002400008BFB0EC108A80F30988BFF36F8F704746
:1002500060000020EFF305807047000006488047EB
:1002600006480047FEE7FEE7FEE7FEE7FEE7FEE79B
:10027000FEE7FEE7FEE7FEE73555000889010008C6
:100280002DE9F05F0546002092469B4688460646CB
:10029000814640241BE0284641464746224600F05E
:1002A000A5FA53465A46C01A914110D31146184632
:1002B000224600F08CFA2D1A67EB01084F462246C1
:1002C0000120002100F083FA17EB00094E41201EA7
:1002D000A4F10104DFDC484631462A464346BDE826
:1002E000F09F10B5431A934209D28318881803E08F
:1002F00010F8011D03F8011D521EF9D210BD40EA8D
:1003000001039B0703D009E008C9121F08C0042A93
:10031000FAD203E011F8013B00F8013B521EF9D27A
:1003200010BDD2B201E000F8012B491EFBD270478C
:100330000022F6E710B513460A4604461946FFF7B1
:10034000F0FF204610BD421C10F8011B0029FBD114
:10035000801A704710B5002200E0521C835C8C5C50
:10036000A34201D1002BF8D1D8B2E1B2401A10BD9E
:1003700030B504460020034600E05B1C934203D2E4
:10038000E05CCD5C401BF8D030BD30B505460020A8
:10039000034600E05B1C934205D2EC5CC85C201A6B
:1003A00001D1002CF6D130BD2DE9F05F93460F4608
:1003B00080460446002605F06FFDD0F80090824686
:1003C00014F8015B2DB100F033FA0068405DC007FE
:1003D000F6D12B2D02D02D2D1AD0641E0021CAF883
:1003E00000105A463946204600F026FA014627B149
:1003F0003868A04201D1C7F80080DAF8000002286E
:1004000009D0CAF80090700505D54842BDE8F09FB4
:1004100046F48066E2E70846F8E72DE9FE4F80469D
:1004200081EA0300C00F0C46009021F0004123F048
:100430000045B8EB0200A94105D24046214690464E
:100440001C460B46024623F00040104347D0270DC0
:10045000C7F30A00C3F30A510290401A01904028E2
:100460006BDAC3F3130040F4801B0098924620B16E
:100470000023D2EB030A63EB0B0B01985946C0F142
:100480004002504600F0A3F906460D465046594634
:10049000019A00F0BBF910EB08006141002487EAE3
:1004A000115284EAE7731A4340D0009A62B3019A6A
:1004B000012A4FEA075215DC001B61EB02014FF0E5
:1004C000004202EA0752CDE90042001C41F58011CA
:1004D00032462B4600F045FA03B0BDE8F08F4046A7
:1004E0002146F9E7001B61EB0201001C41F5801376
:1004F00000185B412018A2F5001747EB030140EA02
:10050000D570B6196D4111E06D084FEA360645EA1F
:10051000C0754FEA0752001B61EB0201001C41F558
:10052000801149084FEA30000019514132462B46EC
:1005300003B0BDE8F04F00F005BA0098012240007A
:100540000023D0EB020263EBE073009821464FEAF0
:10055000E074B8EB000061EB0401E9E783F00043CD
:100560005BE781F0004158E72DE9FE4F81EA030483
:1005700004F0004421F0004100944FF0000B23F000
:10058000004350EA01045ED052EA03045BD0C3F397
:100590000A54C1F30A552C44A4F2F3340194A0FB8D
:1005A0000254C1F3130141F48011C3F3130343F464
:1005B000801301FB024400FB034E840A970A44EABD
:1005C000815447EA8357A4FB076802958D0A05FB0F
:1005D00007854FEA932C04FB0C542705029D4FEA34
:1005E000065847EA1637B5EB08056EEB070C870E81
:1005F000920E47EA811742EA8312A7FB0201B6EB8B
:100600000B0164EB00042B0D43EA0C335E1844EB42
:100610001C50DA465146E7FB0201C5F313044FEACA
:100620000B3343EA14534FEA0432019C43EA0603B6
:10063000A4F10C040294009CCDE900B400F091F9FF
:1006400003B0BDE8F08F00200146F9E72DE9F04D39
:1006500081EA030404F0004B21F0004514464FF0FA
:10066000000A23F0004150EA050220D054EA0102BA
:100670001DD0C5F30A570246C5F31303C1F3130097
:10068000C1F30A5640F4801543F48013A7EB060823
:10069000101BD64608F2FD3873EB050002D308F1B3
:1006A000010801E092185B41B8F1000F03DA002065
:1006B0000146BDE8F08D00204FF4801106468446C7
:1006C0000EE0171B73EB050705D3121B63EB050345
:1006D00006434CEA010C49084FEA300092185B418E
:1006E00050EA0107EDD152EA030012D082EA040079
:1006F00083EA0501084305D0101BAB4106D2012255
:10070000002306E000224FF0004302E06FF00102F8
:1007100053101AEB06004CEB085110EB0A0041EBAA
:100720000B01BDE8F04D00F00DB90EB540F23341BC
:1007300002910021CDE900110A460B4600F011F9A3
:1007400003B000BD00F0004230F000400AD0C10DFF
:1007500001F56071C0F3160042EA0151C20840077A
:100760001143704700200146704701F0004330B448
:1007700021F0004150EA010206D00A0DA2F5607294
:10078000C1F31301002A02DC30BC00207047440F83
:1007900044EAC104C100E01830BC00EBC25000F0D4
:1007A0009AB830B50B46014600202022012409E00A
:1007B00021FA02F59D4205D303FA02F5491B04FA1A
:1007C00002F52844151EA2F10102F1DC30BD202AF9
:1007D00004DB203A00FA02F1002070479140C2F198
:1007E000200320FA03F3194390407047202A04DBCA
:1007F000203A21FA02F00021704721FA02F3D0409A
:10080000C2F120029140084319467047202A06DBB6
:10081000CB17203A41FA02F043EAE07306E041FACE
:1008200002F3D040C2F120029140084319467047BC
:1008300000487047643702082DE9F05F824600786F
:10084000002715468B460AF10104B946302801D02D
:100850009DB113E014F8010B0127782803D0582824
:1008600001D045B10AE00DB1102D07D100271025A8
:1008700014F8010B02E0082500E00A250026B04626
:100880000EE005FB080005FB06F1012701EB104611
:100890001FFA80F8B6F5803F00D3B94614F8010B73
:1008A000294600F0EFF80028EBDABBF1000F05D085
:1008B0000FB1641E00E05446CBF80040B9F1000FC0
:1008C00006D005F0E9FA02210160C81EBDE8F09FDC
:1008D00048EA0640FAE70029A8BF7047401C4900D3
:1008E00008BF20F00100704710B4B0FA80FC00FA95
:1008F0000CF050EA010404BF10BC704749B1CCF1C0
:10090000200421FA04F411FA0CF118BF012121434B
:100910000843A3EB0C01CB1D4FEA00614FEA102006
:1009200042BF002010BC704700EBC35010440029A8
:10093000A4BF10BC7047401C490008BF20F0010054
:1009400010BC704710B5141E73F1000408DA401C87
:1009500041F1000192185B411A4301D120F00100DE
:1009600010BD2DE9F04D92469B4611B1B1FA81F2CE
:1009700002E0B0FA80F220329046FFF728FF0446EA
:100980000F4640EA0A0041EA0B0153465A46084323
:1009900013D0114653EA010019D0C8F14002504665
:1009A000FFF724FF05460E46504659464246FFF7DC
:1009B0000EFF084305D0012004E020463946BDE87B
:1009C000F08D0020054346EAE0762C4337430A9831
:1009D0006305E40AA0EB08000022FD0A44EA47543C
:1009E0000A3002D500200146E9E7010510196941E6
:1009F000DDE9084500196941BDE8F04DA2E7C1F302
:100A00000A52C1F3130140F2FF3341F480119A42BC
:100A100002DA00200146704740F233439A42A2F2C4
:100A2000334202DC5242FFF7E1BEFFF7D0BE0000C6
:100A300030B5041E71F1000404DB4FF00044404265
:100A400064EB0101141E73F1000405DB1C464FF03A
:100A50000043524263EB0403994208BF904230BD09
:100A6000064C074D06E0E06840F0010394E80700FB
:100A700098471034AC42F6D3FFF78AFB900C040879
:100A8000B00C04083A2800D2303820F02002412A65
:100A900001D3A2F13700884201D34FF0FF307047F5
:100AA0000EB5C10F80EAE0700844CA07002140F289
:100AB00033438DE80E000A460B46FFF752FF03B0A2
:100AC00000BD70B5C1F30A5201F000450024C1F326
:100AD000130140F2FF3341F480119A4201DA002001
:100AE00070BD40F233439A42A2F2334203DC5242D9
:100AF000FFF77CFE00E090402C43F1D0404270BDF7
:100B000070B58C1810F8015B15F0070301D110F8CF
:100B1000013B2A1106D110F8012B03E010F8016BFC
:100B200001F8016B5B1EF9D12B0705D40023521E7F
:100B30000DD401F8013BFAE710F8013BCB1A921CE7
:100B400003E013F8015B01F8015B521EF9D5A142E5
:100B5000D8D3002070BD0000F0B5F1B1002300BF74
:100B600002EB430C32F813E0BCF802C02EF0030E87
:100B70002CF0030C50F80E5050F80C6000EB0E04F3
:100B800000EB0C0740F80E6040F80C507E6865687A
:100B900002338B4266607D60E2D3F0BD2DE9F04107
:100BA0000488984616460746012A0D460CD1E4B340
:100BB000281D214690ED000A0139B1EE400A80ED72
:100BC000000A00F10800F5D1FF2C0CDDB4F5806FB0
:100BD00010DBB4F5805F22D0B4F5006F11D0B4F50E
:100BE000806F17D021E03F2C10DC102C12D0202C6D
:100BF00007D01AE0B4F5807F03D0B4F5007F0ED0A3
:100C000013E03846294600F05FF90EE0402C06D08C
:100C1000802C0AD13846294600F08AF805E07A6827
:100C200028462146012300F0EFFBB8F1000F04D065
:100C3000B989BA682846FFF78FFF012E1CD100EE54
:100C4000104A002CB8EE400A08BFBDE8F081B7EEAC
:100C5000001A81EE000A00BF95ED001A95ED012AF9
:100C600020EE011A22EE402A85ED001A85ED012AB8
:100C7000013C05F10805EFD1BDE8F081002242609A
:100C8000FF294FF0FF0201800EDDB1F5806F16DB0A
:100C900029D0B1F5805F2BD0B1F5006F46D148F671
:100CA0003053C0F6020336E03F2913DC102924D06C
:100CB00020293BD148F65053C0F602032BE0B1F592
:100CC000807F1FD0B1F5007F30D148F67053C0F659
:100CD000020320E040291AD0802927D148F610537A
:100CE000C0F6020317E048F60053C0F6020312E014
:100CF00048F66053C0F602030DE048F62053C0F6F4
:100D0000020308E048F64053C0F6020303E048F649
:100D10008053C0F60203191D03F108020C331B882F
:100D2000126809688381C0E90112002250B270473D
:100D30002DE9F0472DED028B03888046084601EB34
:100D4000830AD8F804200021B1EBD30F4FEA5309EE
:100D500000F0AB80D9080AEB890C00EB890E002764
:100D6000C4190AEB070594ED000A95ED003A94EDDD
:100D7000011A95ED014A0EEB07030CEB070694ED03
:100D8000022A95ED025A70EE035A93ED006AD6EDF1
:100D9000001AD6ED012AD6ED023AD6ED034AC4ED8B
:100DA000005A71EE045A93ED017AC4ED015A72EEC5
:100DB000055AD3ED020AC4ED025AD4ED035AD5ED1B
:100DC000036A31EE441A35EEA68A36EE214AD3ED97
:100DD000037A84ED038A83ED004A37EE224A83EDDD
:100DE000014A30EEA34A83ED024A37EEA44A83ED6E
:100DF000034AD31931EEC64A33EEE06AD3ED000A56
:100E0000D3ED011A30EE430A32EE452A32EEC75ACC
:100E100060EE202A61EE213A21EE201A20EE210A0E
:100E200031EE400A85ED010A24EE210A25EE211A51
:100E300025EE205A72EEA32A24EE204A30EE450A0F
:100E4000C5ED002A86ED000A34EE010A86ED010A9E
:100E500093ED020A93ED031A35EEE63A22EE004ACC
:100E600023EE015A23EE003A22EE012A34EEE77A0D
:100E700033EE422A85ED032A26EE012A27EE011AD7
:100E800027EE003A26EE000A34EE054A32EE432AF7
:100E900030EE010A013907F1100785ED024A86EDAF
:100EA000022A86ED030A7FF45BAF4946022300F075
:100EB000ABFAD8F80420504649460223BDEC028B19
:100EC000BDE8F04700F0A0BA2DE9F04F81B02DED5C
:100ED000088B8EB002880346500801EB800505EBB5
:100EE000800691ED000A91ED011A96ED002A96ED2B
:100EF000013A04935B6806EB800730EE024A30EE5D
:100F0000420A31EE032A31EE431A95ED013A95ED8E
:100F1000005A0593930897ED017AD7ED000A0293E2
:100F200074EE452A72EE433A34EE054A32EE032A55
:100F30006FF0010334EE204A32EE072A03EB9202EF
:100F400030EE036A71EE451A30EE430A31EE051AAF
:100F500081ED004A0A9181ED012A510836EE476A77
:100F600071EEA01A72EEE02A73EEC73A30EE070A6D
:100F700031EE601A0095019603970D91C10085ED41
:100F8000006AC5ED011AC6ED002AC6ED013A87EDEB
:100F9000000A87ED011A0C9100EB40016FF0070386
:100FA0006FF003074FEA800E07EBC00B07EB800AD8
:100FB00003EB001903EB81028C00002000250021C7
:100FC0000B9100BF0A9E059B07900695089406EBBF
:100FD00004080C9C311806EB040C06EB0E0491ED92
:100FE000020A9CED022AD4ED020A30EE026AD8ED24
:100FF000022A36EE204A34EE224A91ED031A9CED85
:10100000033AD4ED031AD8ED033A81ED024A94ED88
:10101000034A31EE037A98ED035A37EE044ACDF8CD
:1010200024E034EE054A81ED034A0B9930EE420A82
:1010300031EE431A30EE212A03EB010E32EE634A01
:1010400031EE602A0D9932EE225A36EE602A37EEE2
:10105000613A30EE610A31EE201A1F18581932EE4B
:10106000622A33EE633A30EE230A002931EE621A27
:1010700000F0CC800A998E1801EB0A0301EB0905F8
:10108000594493ED007AD6ED010AD1ED003A77EE9E
:10109000202AD5ED014A72EEA35A75EEA45A13ED3B
:1010A000016AD6ED001A51ED016AD5ED007AC3ED63
:1010B000005A11ED018A76EE215A95ED009A35EE2F
:1010C000888A38EE098A03ED018A97ED028A97ED46
:1010D000039A24EE08AA25EE09BA25EE085A24EE52
:1010E000094A35EE444A37EE605A84ED034A36EE3B
:1010F000614A35EE666A33EEE47A36EE276A74EEBC
:10110000070A66EE091A20EE899A60EE880A26EE32
:10111000086A3AEE0BAA71EEE00A36EE096A84ED2F
:1011200002AAC1ED000A01ED016A90ED046AD0ED5A
:10113000050A62EE061A23EE208A23EE063A22EE14
:10114000202A33EE422A8CED032A32EEE32A35EED2
:10115000E63A71EE881A33EE673A32EE642A0D9859
:10116000CCED021A62EE461A23EE066A23EE203A0E
:1011700022EE202A31EEC33A32EE462A013886EDBD
:10118000013A86ED002A0D909EED062A9EED073A63
:101190000C9820EE026A61EE030A21EE021A20EE9C
:1011A000030A083031EE400A37EEE61ADDF824E093
:1011B0000C9088ED030A37EE440A31EE451A0B987D
:1011C00021EE034A20EE033A20EE020A36EE206AB0
:1011D00021EE021A34EE400A183088ED026A85EDDD
:1011E000010A31EE030A089C0B9085ED000A069D6A
:1011F00007980EF1080E083410350830A9F10809D7
:10120000083AABF1080BAAF1080ADBE697ED026A8F
:1012100097ED037A64EE060A65EE071A25EE065A84
:1012200024EE074A30EEA16A35EE444A84ED026AA4
:1012300084ED034A90ED044A90ED055A22EE046ACB
:1012400023EE057A23EE043A22EE052A36EE074A0B
:1012500033EE422A8CED024A8CED032A9EED062ADB
:101260009EED073A029D20EE024A21EE035A21EE3E
:10127000021A20EE030A0A98059A34EE052A31EE86
:10128000400A2946042388ED022A88ED030A00F06B
:10129000BBF8049C009862682946042300F0B4F867
:1012A000626801982946042300F0AEF8626803984A
:1012B000294604230EB0BDEC088B01B0BDE8F04F09
:1012C00000F0A2B880B50023B3EB920F3DD04FEAF7
:1012D000920C00BF90ED000A90ED011A20EE000A7A
:1012E00021EE011A30EE010A81ED000A90ED020AAA
:1012F00090ED031A20EE000A21EE011A30EE010AE9
:1013000081ED010A90ED040A90ED051A20EE000A25
:1013100021EE011A30EE010A81ED020A90ED060A73
:1013200090ED071A20EE000A21EE011A00F1200EBE
:1013300030EE010A01F1100381ED030ABCF1010C4A
:1013400070461946C6D11946704612F0030208BF0E
:1013500080BD00BF90ED000A90ED011A20EE000A5A
:1013600021EE011A30EE010AA1EC010A013A00F166
:101370000800EFD180BD0000B0B50025B5EB930F9C
:1013800031D04FEA930C00BF90ED000A91ED001AA6
:1013900000F1100E20EE010A82ED000A90ED010A24
:1013A00091ED011A01F1100420EE010A82ED010A0B
:1013B00090ED020A91ED021A02F1100520EE010AE9
:1013C00082ED020A90ED030A91ED031ABCF1010CC3
:1013D00020EE010A82ED030A70462A462146D3D147
:1013E00021462A46704613F0030308BFB0BD00BF74
:1013F000B0EC010AB1EC011A013B20EE010AA2ECAB
:10140000010AF5D1B0BD00002DE9F04F81B02DEDFE
:10141000108BA0B0DFED04CA00900430CDE9023299
:101420000190CDE91E1101E0F304353F1F9A4FF002
:10143000000AD308DF00A7EBD200C0001D904FEADE
:10144000C20C03EB430503EB8302580106931E0114
:10145000019B2C014FEAC20EED00CDE90C0ECDE947
:101460000A5600BF0A9D191803EB05091D9D03EBE1
:101470000E0003EB070810ED014A86469A19181969
:1014800003EB050B13ED011A11ED012A18ED013ADA
:1014900012ED017A50ED010A59ED011A5BED012AB6
:1014A00031EE025A33EE046A77EE203A71EEA24A28
:1014B00075EE235A76EE246A75EEA67A43ED017A2C
:1014C00075EEE65AD8ED007A9EED008A99ED00BAE5
:1014D0009BED00CAD3ED006A41ED015AD1ED005AEF
:1014E00092ED009A90ED00AA37EE88EA7BEE0C8A26
:1014F00036EEA5DA39EE0AFA35EE635A36EE646A4C
:101500007EEE684A7DEE0F9A7DEE4F3A35EE24DA94
:1015100035EE645A7EEE28AA02ED01DA33EEC6DA21
:1015200000ED015A36EE235A31EE421A33EE442AC8
:1015300037EE603A31EEE24A37EEC86A7BEE4C0A8B
:1015400079EEAABA79EEEA9A72EE441A32EE042AD9
:1015500036EE604A36EE206AC3ED00BAC1ED009A5D
:1015600082ED00DA80ED005A36EEE55A39EE4A7A1D
:1015700061EEAC1A22EE2C2A24EE2C4A26EE2C6ABE
:1015800071EE210A73EE022A75EE043A77EE064AEE
:1015900031EE611A33EE422A35EE443A37EE464ACE
:1015A0002646744670EEA45A70EEE40A31EE045AF0
:1015B0001F9A1E9948ED015A73EEE25A4BED010A4B
:1015C00072EEA30A204604ED015A33EE425ADDF8CA
:1015D00034E0C8ED005ACBED000A84ED005A0C98B7
:1015E00031EE441A34460B9E924409ED011A32EE54
:1015F000031A8A45634489ED001AFFF433AF1F983C
:101600004028C0F0D4810298009E80B205900698D0
:10161000CDE90E4CC0EBC000C0000024012510979E
:10162000049000BF0598039B044403EBC40191EDB3
:10163000000A03EB04128DED1D0A92ED000A04EB83
:10164000440203EBC2008DED1C0A90ED000A03EB8F
:1016500044118DED1B0A91ED000A04EB8401C800D2
:1016600003EBC1018DED1A0A91ED000A4FEAC20A9F
:101670004FEA021B03EB02128DED190A92ED000AEC
:10168000C4EBC4024FEAC40CD10003EBC2028DEDDF
:10169000180A92ED000A0CF104024FEA041E1A44E3
:1016A0008DED170A92ED000A0EF104021A448DED39
:1016B000160A92ED000A0AF104024FEA44191A448C
:1016C0008DED150A92ED000A09F104021A448DED20
:1016D000140A92ED000A043018448DED130A90EDBF
:1016E000000A0BF1040018448DED120A90ED000A77
:1016F000081D18440994D0ED006A0796B446089571
:101700002B46DDE90C54DDE90A76DDF810808DED1D
:10171000110A00BF10980E990CEB05090CEB000E96
:101720000CEB04000CEB060B0CEB010A0CEB0702B4
:101730000CEB0801DCED027A99ED028A9EED029A2B
:1017400090ED02AA9BED02DA9AED02EA92ED02FA1E
:10175000D1ED028A37EE88BA39EE0ACA7DEE0E9ACA
:101760007FEE28AA7BEE29BAF0EE6C3A7CEE2ACA0C
:101770007BEEACDACCED02DA7BEEECBADCED03CA40
:10178000D9ED03DADEED03EAD0ED03FA9BED030AAF
:101790009AED031A92ED032A91ED033A3CEEAD4A1D
:1017A0003EEEAF5A30EE016A32EE037A74EE060A6C
:1017B00075EE071ADDED1A4ADDED135A70EEA12A17
:1017C00070EEE10ACCED032A64EEAB1A65EEA02AB6
:1017D00071EEA21A64EEA00A65EEAB2A70EEE20A80
:1017E000C9ED021AC9ED030A7BEE690A7CEE6A1A9A
:1017F00034EE464A35EE475A9DED1CCADDED154ADA
:1018000030EE856A34EE617A6CEE062A24EE87BAF1
:101810002CEE077A24EE866A30EEC55A31EE844A01
:10182000DDED180ADDED111A37EE466A8BED036A1D
:1018300020EE856A21EE847A20EE844A21EE855AD4
:1018400037EE066A34EE454A39EE4A5A3FEE687A78
:101850007EEEEF1A30EE410A32EE431A7BEE222A78
:1018600035EE472A35EE073A31EEC15A31EE811A8C
:10187000CBED022A8AED026A8AED034A37EEC84AA6
:101880003DEE4E6A7CEEED0A22EE232A23EE233A49
:1018900025EE235A21EE231AF0EE63CA34EE027AC3
:1018A00076EE031A70EE852A70EE017ADDED1D3AB0
:1018B000DDED164A37EE278A32EEE19A23EE88AA4A
:1018C00024EE89BA23EE899ADDED173A37EE677A6E
:1018D00071EEA21A63EE872A66EEA17A63EEA11A70
:1018E00026EE877A24EE888A31EEC77A34EE422AD1
:1018F00036EE433A30EEC54A30EE410ADDED190AC4
:10190000DDED121A39EE488A32EE001A34EE435AEF
:101910008EED038A81ED037A20EE816A21EE857ACD
:1019200020EE855A21EE811A3AEE0BAA72EEA72A12
:1019300036EE076A35EE411A8EED02AAC1ED022A93
:1019400080ED026A80ED031A1F9833EE041A0344F7
:101950001E989DED1B4A9DED145A32EE400A8342BB
:101960000F9824EE002A25EE013A24EE011A25EE06
:10197000000A32EE032A31EE400A844482ED022A44
:1019800082ED030AFFF4C6AE089D0698079E013556
:10199000099C854206F10806FFF444AE0298C00097
:1019A00002901F983F2806981F903FF63FAD20B049
:1019B000BDEC108B01B0BDE8F08F10B578B14FF4DD
:1019C00000710446FFF75AF950B94FF48060208245
:1019D00048F61050C0F603006061002000E0FF20D0
:1019E00040B210BD10B568B140210446FFF746F97A
:1019F00048B98020208249F61050C0F6030060618B
:101A0000002000E0FF2040B210BD10B578B14FF4C7
:101A100080610446FFF732F950B94FF4006020822C
:101A200049F61070C0F603006061002000E0FF205E
:101A300040B210BD10B570B180210446FFF71EF909
:101A400050B94FF4807020824BF61070C0F603003E
:101A50006061002000E0FF2040B210BD10B568B109
:101A600010210446FFF70AF948B9202020824CF2E1
:101A70001030C0F603006061002000E0FF2040B29B
:101A800010BD10B578B14FF400610446FFF7F6F8C9
:101A900050B94FF4805020824CF29030C0F60300D1
:101AA0006061002000E0FF2040B210BD10B578B1A9
:101AB0004FF480710446FFF7E1F850B94FF400701D
:101AC000208240F29030C0F604006061002000E007
:101AD000FF2040B210BD10B568B120210446FFF7C9
:101AE000CDF848B94020208240F69030C0F604007E
:101AF0006061002000E0FF2040B210BDF0B581B071
:101B000014460E46054673B12846314622461F4606
:101B100000F060F8284621463A46012301B0BDE8AE
:101B2000F040FFF73BB82846314600220123FFF77B
:101B300035F828463146224601B0BDE8F04000F0B5
:101B4000A3B8B1F5007F0ADA7F2916DC202929D055
:101B500040293BD141F6D721C0F600010847B1F535
:101B6000006F14DAB1F5007F21D0B1F5806F2DD16F
:101B700041F6BB11C0F60001084780291CD0B1F521
:101B8000807F23D141F63521C0F600010847B1F529
:101B9000805F16D0B1F5006F18D141F60B21C0F669
:101BA0000001084741F65D21C0F60001084741F6F3
:101BB000AD21C0F60001084741F6E511C0F600016D
:101BC000084741F68321C0F6000108474FF0FF3077
:101BD0007047000080B591ED001A91ED012AD0F810
:101BE00014E0008831EE023AB6EE000A31EE421AF5
:101BF000B0F1010C23EE003A21EE001A82ED003A1A
:101C000082ED011A08BF80BD01F1080301EBCC0190
:101C10000EF108000832043111ED011A91ED002A8D
:101C200093ED003A93ED014A90ED005A90ED016A70
:101C300033EE417A72EE040A67EE051A60EE862AE8
:101C400027EE066A31EE031A34EE422A25EE205AB8
:101C500031EE611A32EE062A31EE621A32EE452A70
:101C600021EE001A22EE002A82ED001A82ED012AEE
:101C7000BCF1010C03F1080300F1080002F10802B5
:101C8000A1F10801C8D180BD91ED000A91ED011AC2
:101C90000388406930EE002A31EE011AA3F1010CED
:101CA00032EE013AB6EE000A32EE411A23EE003A65
:101CB00021EE001A00F1080301F1080001EBCC014C
:101CC00082ED003A82ED011A0832043111ED011A59
:101CD00090ED003A91ED002A90ED014A93ED005A03
:101CE00093ED016A31EE437A72EE040A67EE051A4B
:101CF00027EE067A31EE031A34EE422A25EE205AF8
:101D000020EE866A31EE211A32EE072A31EE061AEB
:101D100032EE452A21EE001A22EE002A82ED001A48
:101D200082ED012ABCF1010C03F1080300F1080067
:101D300002F10802A1F10801C8D1704700F038F89B
:101D400000F0FAF8144D4FF0FF34286898B1134EA4
:101D5000134F4FF4A0782146012009F065FD30783B
:101D600000F06EF8387870B1234642460D490E48AF
:101D700002F014FAEFE7502080F31188BFF34F8F81
:101D8000BFF36F8FFEE700F01DF800231A460749E6
:101D900028680AF0BFF9DEE72000002004000020D8
:101DA0001C00002020330020901E002064E700204B
:101DB0004FF420720149024800F076BE201F002037
:101DC000E81C0020184910B54FF47072A1F520707E
:101DD000FEF787FA1549164ADFED160A002000BF04
:101DE00032F9103000EE103A01EB8003401CB8EEDF
:101DF000C00AA02820EE200A83EDF00AF0DB0B4990
:101E00004FF4C86201F5C860FEF76BFA4FF4E07159
:101E10000948FEF78DFA094ABDE81040A2F50061B5
:101E2000A1F5CA6002F03CBCA4DB002024D900204C
:101E30002033002000000038A4E5002064E70020E3
:101E400010B5012806D00020084900F52072A1F540
:101E5000A05308E04FF42070F6E700BF33F82040AD
:101E600021F8024B001D9042F8D310BD2033002012
:101E7000FEE70000014800F017B90000781D0020BF
:101E8000014800F011B90000D81D00200168182396
:101E9000CAB2103AB2FBF3F2054B6FF30901032A01
:101EA0009B5CC36500D9091D816508467047000029
:101EB00028D7000810B5014600208B698A6A4FF0C8
:101EC000C07453B1B3F5005F15D072B1012A0CD0C4
:101ED000022A0AD0032A09D104E01AB1012A06D045
:101EE000022A03D1C96AC90100D5012010BDC96AFF
:101EF000A142FAD010BD002AF7D0012AF2D0022A5E
:101F0000F3D0032AF3D010BD30B50468256825F45A
:101F100080252560046863608368402B036803D0D4
:101F200099600068C26030BD9A600068C16030BDD1
:101F3000704772B6FEE7000070B54FF4C874002217
:101F40002146244803F008FF00B1FEE74FF4007675
:101F500031462148FFF7F5FD1F481E4900F14805AD
:101F60001E4A286001202871A960C5E905624FF466
:101F70007A51C5E90314A5F1300402F5205222601C
:101F800002F5A0726260A2F50552A26050222261A1
:101F9000C4E905619FED120A84ED070A9FED110A5D
:101FA00084ED080A84F82400A062E062204602F072
:101FB0001FFD0D4904F14C00B7EE000AC1E90054C1
:101FC00001600021017180ED020A9FED080A80ED99
:101FD000030A70BDA4E80020B0D80020E4EE002081
:101FE000000000000000FA45E00000200000A042D0
:101FF0002DE9F0410446876D00F0E0FA064694F8BA
:1020000035000025022806D08020606584F8345011
:102010000120BDE8F0812068016821F0160101600F
:102020002068416921F080014161206C08B9A06CF1
:1020300020B12068016821F0080101602068016872
:1020400021F0010101600CE000F0B8FA801B0528C6
:1020500007D920206065032084F8350084F83450C7
:10206000D7E720680068C007EED194F85C103F20E5
:102070008840B860012084F8350084F8345000208E
:10208000C7E790F83510022903D08021416501206F
:102090007047052180F835100068016821F00101C2
:1020A00001600020704700002DE9F84304464FF01E
:1020B0000009CDF8009063484FF41651A56D0068F3
:1020C000B0FBF1F72E6894F85C10082000FA01F1DB
:1020D00031420FD021680A6852070BD50A6822F0F6
:1020E00004020A6094F85C108840A860606D40F0BB
:1020F0000100606594F85C104FF0010808FA01F0E7
:10210000304208D021684969090604D5A860606D8D
:1021100040F00200606594F85C1004208840304272
:1021200008D021680968890704D5A860606D40F06F
:102130000400606594F85C1010208840304218D08C
:1021400021680968090714D5A86020680168490357
:1021500004D50068000308D5A16C07E00168C90533
:1021600003D4016821F008010160216C09B1204607
:10217000884794F85C1020208840304231D0216894
:102180000968C9062DD5A86094F83500052820688F
:10219000016806D0490347D5006800031DD4616C6F
:1021A0001CE021F0160101602068416921F08001E6
:1021B0004161206C08B9A06C20B12068016821F051
:1021C0000801016094F85C103F208840A86084F802
:1021D000358084F83490216D1FE0E16B09B1204611
:1021E0008847606D00282BD0606DC00714D0052093
:1021F00084F835002068016821F001010160009831
:10220000401C0090B84203D820680068C007F6D18F
:1022100084F8358084F83490E16C002910D001B046
:102220002046BDE8F04308470168C905D5D40168D8
:1022300021F01001016084F8358084F83490CCE7F7
:10224000BDE8F8835C0000202DE9F041044600F071
:10225000B5F906465CB1022084F83500002584F803
:1022600034502068016821F0010101600DE0012077
:10227000BDE8F08100F0A2F9801B052805D92020D7
:102280006065032084F83500F2E720680068C00725
:10229000F0D12268116820480140D4E901031843B5
:1022A000D4E903363343184363691843A3691843D9
:1022B000E3691843236A18430843616A042903D178
:1022C000D4E90B1319430843106020684069666A1B
:1022D00020F0070130460E43012704280CD1A06AE4
:1022E0000643E06A40B12046FFF7E4FD20B14020FC
:1022F000606584F83570BAE7206846612046FFF7CC
:10230000C5FD94F85C203F2191408160656584F8AB
:1023100035700020ACE700003F8010F02DE9F0415F
:102320000446866D90F83400002501280DD0012068
:1023300084F8340094F835700020012F07D084F819
:10234000340002252846BDE8F0810220FBE7022781
:1023500084F8357060652046FFF7D6FD94F85C1070
:102360003F208840B0602068016841F0160101609C
:10237000206C20B12068016841F0080101602068EC
:10238000016841F001010160DCE7000070B504461E
:1023900000F014F90546601C02D00448007804449B
:1023A00000F00CF9401BA042FAD370BD5000002091
:1023B0002DE9F84FDFF8BCA10022012503264FF0DC
:1023C0000F090AF1040BAAF1040E00BF0B6805FA0D
:1023D00002F42340A34270D10F7907F00307012FC5
:1023E00001D0022F16D187684FEA420806FA08FC8E
:1023F00027EA0C07D1F80CC00CFA08FC4CEA070CD1
:10240000C0F808C04768A7430C79C4F3001494408F
:102410003C4344600C79E443A4070AD0C4684FEA03
:10242000420C06FA0CF7BC438F6807FA0CF72743F7
:10243000C7600C7904F00304022C12D1D40800EB1D
:10244000840CDCF820405707FF0E09FA07F824EA4D
:102450000804D1F8108008FA07F848EA0408CCF814
:10246000208004684FEA420C06FA0CF7BC430F794F
:1024700007F0030707FA0CF7274307604C6814F4CA
:10248000403F70D03C4C276847F480472760246861
:1024900022F0030704F480440094384C07EB040C4A
:1024A000DCF8084897074FEA177809FA08F7BC43A1
:1024B000334FB84202D1002724E054E0314FB842F4
:1024C00001D101271EE0304FB84201D1022719E0A7
:1024D0002E4FB84201D1032714E02D4FB84201D14D
:1024E00004270FE02B4FB84201D105270AE02A4FFD
:1024F000B84201D1062705E0284FB84201D107278D
:1025000000E0082707FA08F72743CCF80878DAF83C
:1025100000405746D1F804C09C435FEACC2C00D55C
:102520001C433C60DBF800405F46D1F804C09C438C
:102530005FEA8C2C00D51C433C60DEF800407746F7
:10254000D1F804C09C435FEA8C3C00D51C433C603E
:10255000084F083F3C68D1F804C09C435FEACC3C7C
:1025600000D51C433C60521C102AFFF42FAFBDE87D
:10257000F88F0000083C0140443802400030014020
:10258000000002400004024000080240000C02402B
:10259000001002400014024000180240001C0240DB
:1025A000426921EA02030A4043EA0241816170471D
:1025B0000AB1816170470904FBE7000001488068A7
:1025C00070470000500000202DE9FF4104460068DC
:1025D000816800917749784E4FF04027884201D1B9
:1025E000324600E03A46926801924068884602907E
:1025F00001D1304600E038464068039060684FF0F3
:102600000105B0F5007F1CD0D8B1900705D503981F
:10261000000602D5204601F043FE0098C0070FD007
:10262000029840067FD521682046CA68E16A8B1C63
:10263000E3620A80618E491E6186618E002967D03F
:1026400071E00098800719D50298000616D5616AD6
:1026500020468A1C626222680988D160618D491E09
:102660006185618D51B901684A6822F0A0024A6013
:10267000418E19B980F8415000F0A0F80198C007C8
:1026800005D00398400602D5204601F0D9FD0198F7
:10269000400622D5039880061FD52168414501D107
:1026A000304600E03846406820F0600101D13046F5
:1026B00000E0384641602068416821F0A001416097
:1026C0002068C1688068019084F84150606C40F0D7
:1026D00002006064204600F072F80098000767D599
:1026E0000298800664D52068416821F0A00141600D
:1026F0002168414501D1304600E03846406820F06D
:10270000600000D03E46706020688068009043E022
:1027100001684A6822F060024A60418D19B980F868
:10272000415000F04BF8009840061ED502988006F4
:102730001BD52068416821F0600141602168414556
:1027400001D1304600E03846406820F0A00101D1B8
:10275000304600E03846416084F84150606C40F0FB
:1027600002006064204600F02AF8019800071FD597
:10277000039880061CD52168414501D1304600E010
:102780003846406820F0A00000D03E4670602068C7
:10279000416821F06001416084F84150606C40F074
:1027A0000400606404B02046BDE8F04100F007B8C2
:1027B000BDE8FF810038004000340040704770479A
:1027C0002DE9F047040005D094F841004FF00008CF
:1027D00018B109E00120BDE8F08784F84080514835
:1027E0006063204600F0A6F8022684F84160206865
:1027F000C16940F6BF77B943C1612068066260696C
:102800004FF4007902282FD0E06870B12025A0682D
:10281000202800D86D00012000F032FB21694945D5
:102820001FD1E16819B1A90002E01025EFE7E90026
:10283000B0FBF1F000EB800061694000B0FBF1F00B
:10284000401D0A21B0FBF1F000F00101401A4008E0
:102850000902821EFE2A09D3606C40F010006064F9
:10286000B8E7B0FBF5F0E5E7022000212269084354
:10287000024320680262D4E901010843A269E168C9
:10288000114308432168CA69BA43104340F4006009
:10289000C861206A01283AD123486063234821682F
:1028A000234A4FF04023814201D1114600E01946EE
:1028B000C96921EA070101D1154600E01D46E96119
:1028C0002168814201D1114600E019460E62256857
:1028D000854201D1114600E01946C9698EB261688E
:1028E00049451BD0D1B100212789B4F80CC047EA73
:1028F0000C07B4F818C04CEA010C47EA0C07B9B24F
:10290000314341F40061854200D01A46D161C4F8D8
:102910004480012084F8410000205CE74FF480717E
:10292000E2E7000085430008C925000800380040A0
:10293000003400402DE9F04F87B006461421684668
:10294000FDF7F6FC5148504B326800244F491038CF
:102950000225DFF83CB14FF4A0584FF480694FF4E2
:10296000807A9A4242D10A6842F480420A60096839
:1029700001F480410591016841F0040101600168A2
:1029800001F004010591016841F002010160006855
:10299000052700F00200059008200090CDE90154C1
:1029A000CDE9034769465846FFF702FDCDF80080A0
:1029B000CDE90154CDE9034769463648FFF7F8FCF5
:1029C000364D3548C5E90004AC608014EC60C5E9BB
:1029D00004908000A861C5E907A428466C62FFF74F
:1029E00033FC08B1FFF7A5FAF56348E02C4B9A4297
:1029F00046D10A6842F400420A60096801F40041C5
:102A00000591016841F001010160016801F00101D7
:102A10000591016841F0040101600068062700F09B
:102A20000400059010200090CDE90154CDE9034742
:102A300069461C48FFF7BCFCCDF80080CDE9015485
:102A4000CDE9034769465846FFF7B2FC134D1248DB
:102A500060353030E5E802044020A5E8110240016D
:102A600045F814098000A861C5E907A40B486C6209
:102A70006030FFF7E9FB08B1FFF75BFAB563AE63BF
:102A800007B0BDE8F08F0000003800404038024039
:102A9000000802400004024058600240781D0020F7
:102AA000003C004000000240F8B5044629B122B1C4
:102AB00094F84100012829D101E00120F8BD94F8E3
:102AC0004000012822D0012684F84060042084F8C8
:102AD000410000256564E1622068C06900F00700DC
:102AE000032815D0052813D022866286E16B1F4883
:102AF0000864E16B1E48C863E16B1E48C864216826
:102B0000C869C0F30120032809D00BE00220F8BDFA
:102B10004FF6FF7000EA420020866086E6E7C8684C
:102B200088680090238E0C31E26AE06BFFF7F6FBB9
:102B300040B154F8440F40F0080044F804096670AE
:102B40002570BAE784F8405020684168C90703D16E
:102B5000416841F0010141602068C169490503D421
:102B6000C16941F48061C1610020F8BD4D43000896
:102B7000294300080143000808B5002000900A48D6
:102B800001210170406800280DD0694608F0EEFF71
:102B90000098002807D005494FF080500860BFF327
:102BA0004F8FBFF36F8F08BD0400002004ED00E0DD
:102BB00008B50B48002100910170406800280DD035
:102BC000694608F0D3FF0098002807D005494FF068
:102BD00080500860BFF34F8FBFF36F8F08BD0000B8
:102BE0000400002004ED00E070B5044629B122B1D4
:102BF00094F84100012833D101E0012070BD94F820
:102C0000400001282CD0012684F84060032084F87D
:102C100041000025656461622068C06900F007001A
:102C200003281FD005281DD022856285A16B1B4873
:102C30000864A16B1A48C863A16B1A48C864238D45
:102C40002268616A0C32A06BFFF768FB88B154F808
:102C5000440F40F0080044F8040966702570CCE782
:102C6000022070BD4FF6FF7000EA420020856085AB
:102C7000DCE784F8405020684168890703D4416844
:102C800041F0020141602068C169490503D4C1696E
:102C900041F48061C161002070BD00007B430008E9
:102CA000574300080143000808B500680B498842F3
:102CB00013D10B48006800280FD00021009169460D
:102CC00009F037FB0098002807D006494FF08050E4
:102CD0000860BFF34F8FBFF36F8F08BD003C00400B
:102CE0000C00002004ED00E07047000002488168FD
:102CF0000278114481607047500000200B4810B5E5
:102D0000016841F400710160016841F48061016073
:102D1000016841F480710160032000F09FF80F20EA
:102D200000F006F800F050F8002010BD003C024012
:102D300030B505461F4887B00024016841F01001F6
:102D40000160006806A900F01000009001A800F0E2
:102D5000FFF90498A8B100F01BFA40001649174A81
:102D6000B0FBF1F11648491E026040F2E732C0E9BB
:102D70000324C0E90114846100F0FBFE040003D0C9
:102D800015E000F005FAE9E70D4800F021FF040026
:102D90000DD1362000F034F8102D07D2002229463C
:102DA000362000F03BF80748056000E0012407B03A
:102DB000204630BD4038024040420F000010004025
:102DC000D81E0020540000200C4882B0016841F455
:102DD00080410160006800F4804000900748001FB7
:102DE000016841F0805101600068002200F08050CD
:102DF00000900F21901E02B000F010B8443802403D
:102E0000002809DB00F01F020121914040098000E9
:102E100000F1E020C0F8001170470000F0B40E4B44
:102E20001B680C46C3F30223C3F10705042D00D928
:102E30000425191D072901D2002300E0DB1E01260D
:102E400006FA05F1491E214099409E40761E164023
:102E50003143F0BC03F00FB80CED00E0064900F080
:102E6000070208684FF6FF03184040EA0220034AB1
:102E700010430860704700000CED00E00000FA0508
:102E800001460020012908D11149096811F4000107
:102E900004D0B1F5000F00D10E4870470C48001F58
:102EA00001680068490200F03F0001D50A4900E0CE
:102EB0000A49074AB1FBF0F07C321168C1F388116E
:102EC00041431068C0F30270B1FBF0F0704700009E
:102ED000083802400080BB0040787D010024F400E7
:102EE0002DE9F843054600684FF00109C1074FF08E
:102EF000000601D1400727D5DFF80C81C8F86860CB
:102F0000FFF75CFB0746414C05E000BFFFF756FBAF
:102F1000C01B022857D820680001F7D468688101D7
:102F2000287A41EA0070394984310860C8F868900D
:102F3000FFF744FB074604E0FFF740FBC01B0228F5
:102F400041D820680001F7D52878800752D52F484E
:102F50004030016841F08051016000682C4C00F065
:102F600080500090206840F480702060FFF726FBBE
:102F7000074604E0FFF722FBC01B022823D8206885
:102F8000C005F7D5214C7034206810F4407020D073
:102F9000A98901F4407181421BD020681D4920F4A9
:102FA0004070C1F800900E6020602068C00710D00B
:102FB000FFF704FB064641F2883707E0FFF7FEFA09
:102FC000801BB84202D90320BDE8F883206880073F
:102FD000F4D5E9680D48C1F301220830032A0BD06B
:102FE000016821F4F81101602068A989C1F30B017F
:102FF000084320600020E7E70268074B22F4F8123C
:1030000019400A430260EFE70000474200380240DF
:1030100000700040400E4742FFFCFF0F2DE9F047D3
:103020000E46050065D0DFF81481D8F80000F7B22D
:1030300000F00700B04207D288F80070D8F800000E
:1030400000F00700B04254D128683D4C810712D5EA
:10305000400703D5206840F4E0502060287800073E
:1030600003D5206840F4604020602068A96820F003
:10307000F000084320602878C0072DD030496868E8
:103080000839012812D0022813D0032811D009686A
:10309000890700292DDA216821F00301014321600D
:1030A000FFF78CFA814641F2883A0EE009688903FD
:1030B000EFE709688901ECE7FFF780FAA0EB090167
:1030C000514502D90320BDE8F0872068696800F007
:1030D0000C00B0EB810FEFD1D8F80010404601F0A2
:1030E0000701B14207D90770006800F00700B0423D
:1030F00001D00120E7E72878400705D52068E96876
:1031000020F4E050084320602878000706D52068A6
:10311000296920F4604040EAC100206000F058F8BE
:103120002168084AC1F30311515CC8400649086090
:1031300006480068FFF7FCFD0020C4E7003C0240A1
:103140000838024030D700085C00002054000020FE
:103150000F2202600C4A136803F0030343601368F4
:1031600003F0F0038360136803F4E053C360126854
:103170004FF4E05303EAD20202610448006800F011
:10318000070008607047000008380240003C024019
:103190000448054900680968044AC1F38221515C6A
:1031A000C84070475C0000200838024040D7000843
:1031B0000448054900680968044AC1F34231515C7A
:1031C000C84070475C0000200838024040D7000823
:1031D000154810B5006810F00C02144813D01449BB
:1031E000042A0FD0082A0ED10F4C241F226823680E
:1031F00002F03F025B0207D52068C0F38810A0FBF5
:10320000010106E0084610BD2168C1F38811A1FB49
:1032100000010023FDF734F82168C1F30141491C86
:103220004900B0FBF1F010BD083802400024F40062
:1032300040787D012DE9F84F04006ED02078DFF84A
:103240004C93C007A9F104054AD009F104000168B4
:10325000C1F38101012908D00068C0F38100022870
:103260000AD1D9F80000400206D52868800337D576
:1032700060680028E1D033E06068B0F5803F10D08E
:10328000B0F5A02F286810D020F48030286028687E
:1032900020F4802028606068A8B1FFF78FF9064607
:1032A0000DE0286840F48030F4E740F48020286086
:1032B000F7E700BFFFF782F9801B642873D82868FE
:1032C0008003F7D50CE0FFF779F9064605E000BF6B
:1032D000FFF774F9801B6428F0D828688003F7D4BE
:1032E0002078DFF8AC8280074FF0000A3ED5A7486F
:1032F000001D016811F00C0F08D00068C0F38100B8
:1033000002280BD1D9F80000400207D428688007B2
:1033100016D5E068012800D112E033E1E068B8B1C9
:103320000120C8F80000FFF749F9064605E000BF94
:10333000FFF744F9801B0228C0D828688007F7D51A
:103340002868216920F0F80040EAC10028600DE0FB
:10335000C8F800A0FFF732F9064604E0FFF72EF99F
:10336000801B02281FD828688007F7D42078000720
:1033700022D5864F87486169703771B1012101609C
:10338000FFF71CF9064604E0FFF718F9801B022836
:1033900009D838688007F7D50EE0C0F800A0FFF71D
:1033A0000DF9064605E082E0FFF708F9801B0228C8
:1033B0007DD838688007F7D42078400768D5DFF8D3
:1033C000CCB100270BF13C0BDBF80000C0000BD4A4
:1033D000DBF8001041F08051CBF80010DBF8000062
:1033E000012700F0805000906B4E3068C00510D46B
:1033F000306840F480703060FFF7E0F8009005E03E
:10340000FFF7DCF80099401A022850D83068C00550
:10341000F6D55E4EA0686C3601280FD005283068BE
:1034200010D020F001003060306820F004003060DF
:10343000A068B8B1FFF7C2F800900FE0306840F024
:103440000100F4E740F004003060F7E7FFF7B6F85A
:103450000099411A41F28830814266D8306880076D
:10346000F4D50EE0FFF7AAF8009007E0FFF7A6F802
:103470000099411A41F28830814256D8306880075D
:10348000F4D42FB1DBF8001021F08051CBF80010FC
:10349000A069C8B33D49091D0968C1F3810102292A
:1034A0004AD00228504607D0C8F8600000E03CE04F
:1034B000FFF784F804463BE04746C8F86000FFF792
:1034C0007DF8064605E000BFFFF778F8801B02286C
:1034D0002BD828688001F7D4D4E907010843A16AF2
:1034E0002E4A490802EB0141626A41EA821108430F
:1034F00094F82C1040EA0161C9F8001001203866E8
:10350000FFF75CF8044606E03EE000BFFFF756F820
:10351000001B022809D828688001F7D534E000BFD5
:10352000FFF74CF8001B022802D90320BDE8F88FF2
:1035300028688001F4D427E00128F7D0D9F80000EA
:10354000E26900F4800191421CD1226A00F03F013F
:10355000914217D147F6C071626A0140B1EB821FF8
:1035600010D1A26A4FF0FF3300F4403103EB520256
:10357000B1EB024F06D194F82C1000F07060B0EB64
:10358000016F01D00120D1E70020CFE704380240CD
:1035900000004742800E4742007000400000FFFFDD
:1035A00070B5040009D0606A002540B125616561ED
:1035B000A56294F8510040B10CE0012070BD606834
:1035C000B0F5827FF4D0E561F2E784F850502046F0
:1035D00000F044F8022084F851002068016821F0CE
:1035E00040010160A088218900F4827001F4044147
:1035F0000843A18901F400610843217C01F0020124
:103600000843217D01F001010843218B01F4007181
:103610000843217F01F03801084394F8201001F09D
:1036200080010843218D01F400510843216808609E
:10363000A069042101EA104094F8241001F010015F
:103640000843216848602068C16921F40061C161B4
:103650006565012084F85100002070BD10B586B06A
:10366000044614216846FCF763FE1349206888422B
:1036700020D112480021026842F4805202600068A2
:1036800000F4805005900D481438026842F00202A0
:103690000260006800F002000590382000900220CF
:1036A000CDE90101032003900520049069460448F8
:1036B000FEF77EFE06B010BD0030014044380240E7
:1036C000000402402DE9F84F044690F851001D46D1
:1036D00016460F46012838D1002F77D0002E75D01E
:1036E00060684FF00408B0F5827F01D1A06810B384
:1036F000FEF764FF824694F85000012825D04FF071
:10370000010984F8509084F851804FF00008C4F803
:103710005480A763A687E687C4F83080A4F8348075
:10372000A4F83680C4F84080C4F84480A068B0F59E
:10373000004F0CD015E084F85180009313460A46E0
:10374000204600F01CF9BDE8F88F0220FBE7206856
:10375000016821F0400101602068016821F4804186
:10376000016020680168490603D4016841F0400106
:103770000160E068C0B134E020688168C90709D001
:10378000007BA16B0870A06B401CA063E08F401E03
:10379000E08709E0FEF712FFA0EB0A00A84202D37F
:1037A000681C01D032E085B3E08F0028E4D11BE033
:1037B00020688168C9070AD0C068A16B0880A06B27
:1037C000801CA063E08F401EE0870AE01BE0FEF74C
:1037D000F5FEA0EB0A00A84202D3681C01D015E058
:1037E0009DB1E08F0028E3D152462946204601F0E2
:1037F00056FC08B12020606584F8519084F8508010
:10380000606D00289FD001209DE7FFE784F851906C
:1038100084F85080032096E72DE9F84F9846164625
:103820008A460446FEF7CAFE814694F851000128F4
:103830001ED1BAF1000F73D0002E71D094F8500051
:10384000012815D0012784F85070032084F8510016
:1038500000256565C4F830A0A686E686A563A58721
:10386000E58765642564A068B0F5004F03D00CE0DF
:103870000220BDE8F88F2068016821F04001016056
:103880002068016841F480410160206801684906B0
:1038900003D4016841F040010160E068B0F5006FB9
:1038A000606803D048B3012E27D047E008B1012E4D
:1038B0001FD1206B21680088C86006E020688168FD
:1038C000890709D5216B0988C160206B801C2063A2
:1038D000E08E401EE0860CE0FEF770FEA0EB0901D2
:1038E000414503D3B8F1FF3F03D035E0B8F1000FF5
:1038F00032D0E08E0028E1D123E0206B21680078EF
:10390000087306E02068816889070AD5216B097869
:103910000173206B401C2063E08E401EE0860DE0AA
:103920002BE0FEF74BFEA0EB0901414503D3B8F1B4
:10393000FF3F03D010E0B8F1000F0DD0E08E00285B
:10394000E0D14A464146204601F0D8FB08B120208C
:103950006065A06830B109E084F8517084F8505077
:10396000032086E72068C1688068009084F8517061
:1039700004F8505F60680028F3D0012079E72DE952
:10398000FF4F81B01D46934604464FF001090E9E3D
:10399000FEF714FE074694F851006168012806D02E
:1039A000B1F5827F3CD1A168C9BB042838D1029807
:1039B000002871D0BBF1000FFBD0002DF9D094F896
:1039C000500001282CD04FF0010A84F850A094F840
:1039D0005100042802D0052084F851004FF000085F
:1039E000C4F85480C4F838B0E587A58702992163EC
:1039F000E586A586C4F84080C4F844802068016844
:103A0000490603D4016841F040010160E068B0F567
:103A1000006F606808D0F0B3012D49D081E0FFE766
:103A2000022005B0BDE8F08F08B1012D39D1206B1F
:103A300021680088C860206B801C2063E08E401ED7
:103A4000E0862EE02068816889070FD5E18E69B194
:103A5000B9F1010F0AD1216B0988C160206B801C6C
:103A60002063E08E401EE0864FF0000920688168E8
:103A7000C9070CD0E18F51B1C068A16B0880A06B61
:103A8000801CA063E08F401EE0874FF00109FEF725
:103A900095FDC01B01E00BE067E0B04201D3701C54
:103AA00050D1E08E0028CDD1E08F0028CAD13EE071
:103AB000206B216800780873206B401C2063E08E27
:103AC000401EE0862DE02068816889070FD5E18ED1
:103AD00069B1B9F1010F0AD1216B09780173206B2B
:103AE000401C2063E08E401EE0864FF000092068F5
:103AF0008168C9070CD0E18F51B1C068A16B087013
:103B0000A06B401CA063E08F401EE0874FF00109CE
:103B1000FEF754FDC01BB04202D3701C01D011E06F
:103B200086B1E08E0028CED1E08F0028CBD13A4676
:103B30003146204601F0E2FA50B12020606584F859
:103B4000508012E084F851A084F85080032068E788
:103B5000A06818B92068C1688068009084F851A0F6
:103B600084F85080606D0028F1D0012059E770473B
:103B7000704710B5040003D094F83D0010B107E081
:103B8000012010BD002084F83C00204600F01EF803
:103B9000022084F83D00211D206801F0D9FC01209D
:103BA00084F8460084F83E0084F83F0084F8400022
:103BB00084F8410084F8420084F8430084F844000B
:103BC00084F8450084F83D00002010BD70470000D7
:103BD00090F83D10012901D001207047022180F8A2
:103BE0003D100168CA6842F00102CA6000681149CC
:103BF000884214D0B0F1804F11D00F4988420ED0C6
:103C00000E4988420BD00E49884208D00D4988429F
:103C100005D00D49884202D00C49884204D1816800
:103C200001F00701062903D0016841F0010101609C
:103C300000207047000001400004004000080040E0
:103C4000000C00400004014000400140001800400A
:103C500070472DE9F04104460068C66805694FF0D9
:103C60000007A90713D5B10711D5F91E016101207D
:103C70002077206880698007204602D0FFF7E8FFA0
:103C800004E000F07EF8204600F07CF82777680713
:103C900016D5700714D521686FF004000861022062
:103CA00020772068806910F4407F204602D0FFF71B
:103CB000CFFF04E000F065F8204600F063F82777B6
:103CC000280715D5300713D521686FF00800086163
:103CD000042020772068C0698007204602D0FFF7C3
:103CE000B7FF04E000F04DF8204600F04BF82777CE
:103CF000E80616D5F00614D521686FF010000861AB
:103D0000082020772068C06910F4407F204602D048
:103D1000FFF79EFF04E000F034F8204600F032F890
:103D20002777E80708D0F00706D021686FF0010078
:103D30000861204600F028F8280608D5300606D588
:103D400021686FF0800008612046FFF710FF6806C9
:103D500008D5700606D521686FF04000086120463E
:103D600000F01CF8A8060AD5B00608D521686FF047
:103D7000200008612046BDE8F041FFF7F9BEBDE82C
:103D8000F08170477047000000680349884201D104
:103D9000FEF7ACBF7047000000100040704770474E
:103DA0000068074982B0884208D1016840680090E5
:103DB00001220449044802B000F0B8B902B07047CB
:103DC0000010014014000020901E0020F8B501688A
:103DD00004460868CA684B6910F00F0F4FF00005E1
:103DE00059D003F0010602F49077374365D0C1073C
:103DF00005D0D10503D5616C41F001016164410733
:103E000005D5D90703D0616C41F0020161648107D7
:103E100005D5D90703D0616C41F004016164010745
:103E200007D502F02001314303D0616C41F0080155
:103E30006164616C00293AD0800604D5900602D5F1
:103E4000204601F01BFC20684069616CC0F38010C3
:103E5000090700D460B3204601F0E9FB20684069FF
:103E6000400621D52068143050E8001F21F04001A1
:103E700040E80012002AF5D1E06BA8B17249016553
:103E8000E06BFEF7FEF8002811D0E06B016D01B089
:103E9000BDE8F040084783060FD593060DD52046B0
:103EA000BDE8F84001F0EABB2046FFF779FFF8BD16
:103EB0002046FFF775FF6564F8BD266B2023012EB1
:103EC0007ED1C6067CD5D6067AD5086848680090AB
:103ED00048694FF0020640064DD5E26B1068406815
:103EE0004FF480770004000C3AD0A18D814237D97D
:103EF000E085D069B8422DD020680C3050E8001F12
:103F000021F4807140E80012002AF5D120681430B5
:103F100050E8001F21F0010140E80012002AF5D10D
:103F20002068143050E8001F21F0400140E80012E2
:103F3000002AF5D184F84230256320680C3050E81F
:103F4000001F21F0100140E80012002AF5D1E06BBB
:103F5000FEF74EF86663A08DE18D401A81B206E04F
:103F6000A18D8142A8D1D069B842A5D1666320460F
:103F7000FFF715FFF8BDA08DE18D401A81B2E08DED
:103F80000028F7D00029F5D020680C3050E8002F29
:103F900022F4907240E80027002FF5D120681430F9
:103FA00050E8002F22F0010240E80027002FF5D151
:103FB00084F84230256320680C3050E8002F00E080
:103FC00006E022F0100240E80023002BF3D1CDE7F9
:103FD00005062BD5150629D594F841002128C9D10D
:103FE000A068B0F5805F01D12069B0B1206A411CA2
:103FF0002162216800784860E08C401E0004000CBB
:10400000E084B7D12068C16821F08001C1602068D8
:10401000C16841F04001C160F8BD206A0088C0F36A
:1040200008004860206A801C2062E5E74006F3D55E
:104030005006F1D5CA68204622F04002CA6084F8D2
:10404000413000F0FBF8F8BD2156000870B50400BF
:1040500004D094F84100002510B106E0012070BDA5
:1040600084F84050204600F023F8242084F84100D2
:104070002068C16821F40051C160204601F060FB56
:104080002068016921F4904101612068416921F0B3
:104090002A0141612068C16841F40051C160656432
:1040A000202084F8410084F842006563002070BD40
:1040B00010B586B0044614216846FCF739F9184952
:1040C0002068884229D117480021026842F0100276
:1040D0000260006800F01000059012481438026871
:1040E00042F001020260006800F0010005904FF408
:1040F000C06000900220CDE9010103200390072059
:10410000049069460848FEF753F90022052125204E
:10411000FEF784FE2520FEF773FE06B010BD0000FA
:1041200000100140443802400000024090F8423044
:10413000202B01D00220704721B11AB10023036364
:1041400001F0A0BB0120704708B500680F49884204
:104150001BD10F484168002917D00021009101466A
:104160006B460122406808F02BFB012208490948F0
:10417000FFF7DCFF0098002807D007494FF0805078
:104180000860BFF34F8FBFF36F8F08BD0010014071
:1041900014000020901E002004ED00E02DE9F843FB
:1041A000044690F84100984616460D46202802D055
:1041B0000220BDE8F88385B17EB100206064212033
:1041C00084F84100FEF7FAF9A6848146E684A068E7
:1041D0002027B0F5805F02D003E00120E9E72069E5
:1041E00010B12E4600250EE000260CE0802120466E
:1041F00001F063FBA8B9C6B116F8010B216848604D
:10420000E08C401EE084E08C4B464FF00002CDF87D
:1042100000800028EAD14FF04001204601F04DFB1C
:1042200040B184F841700320C3E735F8020BC0F3B6
:104230000800E3E784F841700020BAE77047FEE722
:1042400070B515490268154B4FF040248A4201D1E0
:104250001A4600E02246D568C26A961CC6621580DE
:10426000428E521E4286428E002A14D102688A4231
:1042700001D1194600E02146496821F0600100D0D3
:1042800023465960418D002905D14FF0010180F886
:104290004110FEF793FA70BD003800400034004032
:1042A00070B5416A144B8A1C426205680988134A3A
:1042B0004FF040249D4201D1154600E02546E960BB
:1042C000418D491E4185418D002914D101689942D3
:1042D00001D1114600E02146496821F0A00100D03B
:1042E00022465160418E002905D14FF0010180F82E
:1042F0004110FEF763FA70BD003800400034004002
:1043000010B5806B01684A6822F003024A60002100
:1043100041854186012180F84110416C41F008013E
:104320004164FEF74CFA10BD10B50146806BC969B7
:1043300049B901684A6822F001024A6000214186B9
:10434000012180F84110FEF717FC10BD10B5806BFD
:10435000FEF72EFC10BD10B50146806BC96949B946
:1043600001684A6822F002024A6000214185012169
:1043700080F84110FEF798FC10BD10B5806BFEF779
:10438000B3FC10BD7CB5016804468868009094F8C1
:1043900041000125042834D10098C00718D048688E
:1043A000C043400614D4C9682046E26A1180E16A1D
:1043B000891CE162618E491E6186618E41B9016886
:1043C0004A6822F060024A6080F84150FEF7D4FB50
:1043D0000098400615D520684168C943890610D465
:1043E000416821F0600141602068C16880680190E7
:1043F00084F84150606C40F0020060642046FEF793
:10440000DEF994F84100032834D10098800719D5CB
:1044100021684868C043000614D4626A20461288A6
:10442000CA60616A891C6162618D491E6185618D06
:1044300041B901684A6822F0A0024A6080F8415000
:10444000FEF732FC0098000714D520684168C94384
:1044500089060FD4416821F0A0014160206880687E
:10446000009084F84150606C40F004006064204685
:10447000FEF7A5F97CBD000010B52DED048BB0EE64
:10448000408A18B39FED190A9FED199ADFED199A2A
:1044900068EE008A9FED180A01F0B6FFF0EE400AC0
:1044A000B3EE0B1A18EE100A80EE810A1349884207
:1044B00007DB78EE690A20EE800A01F0F1FD60EE7C
:1044C000098AB0EE680ABDEC048B10BDDFED0C0A62
:1044D00088EE200A01F0E4FDF7EE000A30EE600AF3
:1044E000DFED080A20EE200AEDE700005555854271
:1044F00000007A4401007041CDCCCC4001007041F5
:1045000000E08C4400002F442DED048B5148D2B0C4
:1045100000220068509050A94F4803F077FE10F039
:10452000FF0F4FF0FF354FF0000B02D0002007F0D7
:1045300035FC494C4FF0010A083C84F800A03C21AE
:104540004648FBF7F5FEDFF81891A8469FED459A1F
:1045500042466946D9F8000007F03AFF0128F7D132
:104560004FF4A07269464048FBF7BBFE3A4E3E4FFF
:10457000361D0021A06803F0BBFE05460021A0689F
:1045800003F0C0FE6F60024646602946A06803F053
:10459000C3FE0128DCD13046304A90ED000A607835
:1045A0005D4602EB8001401CC0B281ED000A6070E4
:1045B0000F2803D3657084F802A001E0A17801B14F
:1045C0000F20F0EE498A0021B0EE688A08E000BFB3
:1045D00002EB8103491C93ED000AC9B230EE088A50
:1045E0008142F5D328B100EE100AB8EE400AC8EEB9
:1045F000008AA08810B1401EA080A9E718EE900A9A
:104600001A498842A4DD20211948FDF7C9FF18EE98
:10461000900AFCF797F841EC100B16A053EC102B06
:1046200001F0D6FB1D48CDED508A00231A4650A953
:10463000006807F06FFD45F6C051002000F06EFEE7
:104640005020A0803C210548FBF772FE6570A570E4
:104650007EE7000070D600082C000020A03E00205D
:104660002000002000000000603D00203333333F75
:10467000000C02405B4B57535D204B6579776F729E
:104680006420646574656374656421206176675F86
:1046900070726F623D252E32660D0A004C000020BC
:1046A0002DE9F04106462DED028B15460068D6ED4A
:1046B000038A96ED028A42680068146987693A465F
:1046C00000F082FE30682A463946406800F066F9FC
:1046D00018EE100AB0F17E5F0DD0002009E000BF97
:1046E00005EB8001401C91ED000AC0EE080AC1ED07
:1046F000000AA042F4D300209FED250A0CE000BF81
:1047000005EB8001D1ED000AF5EEC00AF1EE10FADA
:1047100001D881ED000A401CA042F1D330794FF05E
:10472000000690BBB2EE048A0BE000BF05EB8607E3
:1047300097ED000A01F0A8FD20EE080A761C87ED2F
:10474000000AA642F2D30020F1EE680A0EE000BF94
:1047500005EB800191ED000AB4EEE00AF1EE10FAEB
:1047600001D2B0EE600A81ED000A401CA042EFD3F6
:10477000BDEC028BBDE8F08105EB860797ED000AE2
:1047800001F042FE87ED000A761CA642F4D3EFE763
:10479000000080000D4808B5016841F40011016077
:1047A0000068002200F40010009005210E20FEF7A2
:1047B00035FB0E20FEF724FB002205211020FEF71A
:1047C0002DFBBDE808401020FEF71ABB3038024030
:1047D00010B5054A0021054806F07EF90449086035
:1047E000BDE8104001F024B92CD00008795400082D
:1047F00000000020F0B587B014216846FBF798FD53
:1048000025480025016841F080010160016801F040
:1048100080010591016841F004010160016801F027
:1048200004010591016841F001010160016801F096
:1048300001010591016841F002010160016801F088
:1048400002010591016841F0080101600068012240
:1048500000F00800114ED403059021463046FDF7C4
:10486000A7FE0F4F002220213846FDF7A1FE00943D
:1048700001240220CDE90240694601943046FDF74B
:1048800097FD20208DE83100694638460395FDF7F5
:104890008FFD07B0F0BD000030380240000002403C
:1048A000000C02400E4810B50C4901604FF44071F5
:1048B000416000210322C0E902124FF47A52C0E99C
:1048C00004128161C1610162FDF77AFF002803D003
:1048D000BDE81040FDF72DBB10BD000000380040C2
:1048E000E81C00200D4810B50B49016049154160D6
:1048F000002181604FF47A52C160C0E904128161E5
:10490000C1610162FDF75CFF002803D0BDE81040E3
:10491000FDF70FBB10BD0000003C0040301D002023
:104920000F4810B50D4901604FF4827141600021BC
:104930008160C1604FF400720161C0E90512C1617C
:104940000162416281620A21C162FEF729FE0028EC
:1049500003D0BDE81040FDF7ECBA10BD00300140B7
:10496000381E00200C4810B50A4901604FF4E131AF
:104970004160002181600C22C160C0E904128161A4
:10498000C161FFF763FB002803D0BDE81040FDF7CD
:10499000D0BA10BD00100140901E0020F0B5D0E943
:1049A00001540023DFED110AD0F810C0066819E0A9
:1049B00036F8230035F8237080B2BFB2B0EE600A3B
:1049C00009E000BF01EB800EF4EC011A9EED001A25
:1049D000401C01EE210AB842F4D902EB83005B1CB3
:1049E00080ED000A6345E3D3F0BD00000000000045
:1049F0002DE9F04F00F10C092DED088B85B0816A8F
:104A0000049190F82410D0F82CA000910168039133
:104A10004168029181680191D0E90456D0ED068A7F
:104A200090ED070A90ED089A009800F0C3F8B0EEF8
:104A3000408AB0EE490A009800F0BCF870EE480ACF
:104A4000681C00EE100A7008B8EE400AC0EE809AAA
:104A5000B8EE680AF6EE000A60EE200A00EE100AD0
:104A600000200446B8EE400AC9F80000C0EE80AA53
:104A700097E000BFBAF1000F29D000EE904AB0EEE7
:104A8000480A0098F8EE600A09EEA00AFFF7F4FC65
:104A9000601C00EE900AB0EE409AB0EE480AF8EEC4
:104AA000600A009809EEA00AFFF7E6FCB0EE40AA03
:104AB000A01C00EE100A0098F8EE400AB0EE480A7A
:104AC00009EEA00AFFF7D8FCF0EE408A19E000EEEC
:104AD000104AB0EE489A601CB8EE400AB0EE48AA00
:104AE000F0EE488A09EE809A00EE100AA01CB8EE9B
:104AF000400A09EE80AA00EE100AB8EE400A49EE1C
:104B0000808A3AEE49BA4FF0FF38C346002738EEA4
:104B1000CAAA42E000EE107ABAF1000FB8EE400ADD
:104B200020EE2A0A02D1009800F044F879EE400AFB
:104B300038EEC01AB1EE600AC0EE0B0A81EE0A0A26
:104B4000F4EEC00AF1EE10FA01D2B0EE600AB5EE52
:104B5000C00AF1EE10FA19DD049838B138EEC91A1E
:104B6000F0EE001AC1EE810A20EE200A019880EDD5
:104B7000000A0198001D0190B8F1FF3F00D1B8462E
:104B8000D9F80000BB46401CC9F8000003997F1CFF
:104B900041F82480029941F824B0B7EB560FB9D3FD
:104BA000641CAC42FFF466AF05B0BDEC088BBDE8F9
:104BB000F08F000010B52DED068BB0EE408A08B3E3
:104BC0009FED180A9FED18AADFED189AC8EE008A2B
:104BD0009FED170A01F018FCF3EE0B0A18EE100A0D
:104BE00080EE209A1349884207DB88EE0A0A01F01A
:104BF0000BFCC0EE090A70EEA98AB0EE680ABDECA3
:104C0000068B10BDDFED0C0A88EE200AF7EE000AD5
:104C100030EE200A01F0F8FBDFED080A20EE200A52
:104C2000EDE700005555854200007A4401007041CF
:104C3000CDCCCC4000007A4400002F4400E08C44EE
:104C4000FEE7FEE770B500240021204600F0E7F8FB
:104C50000025002000F04CF96D1CEDB2802DF8D33A
:104C6000641CE4B2082CEFD370BD000010B586B010
:104C700014216846FBF75CFB10480021026842F0F3
:104C80000202026000680E4C00F002000590C02095
:104C900000901120CDE901010220039069462046D1
:104CA000FDF786FB012240212046FDF781FC012211
:104CB00080212046FDF77CFC06B010BD3038024054
:104CC000000402402DE9F0410024144D07468026DF
:104CD00026FA04F0384201D0012200E000228021AF
:104CE0002846FDF765FC012240212846FDF760FCBF
:104CF000002240212846FDF75BFC641CE4B2082C2E
:104D0000E6D3012240212846FDF752FC2846BDE8A3
:104D1000F04100224021FDF74BBC0000000402409E
:104D200010B50B4C012280212046FDF741FC0122E9
:104D300040212046FDF73CFC002280212046FDF763
:104D400037FC20460022BDE810404021FDF730BC72
:104D50000004024010B5094C002280212046FDF7D6
:104D600027FC012240212046FDF722FC204601229B
:104D7000BDE810408021FDF71BBC0000000402408C
:104D800010B50A20FDF702FBFFF770FFAE2000F020
:104D90009EF8D52000F09BF8802000F098F8A8201D
:104DA00000F095F83F2000F092F8D32000F08FF843
:104DB000002000F08CF8402000F089F8A12000F0DD
:104DC00086F8C82000F083F8DA2000F080F812207E
:104DD00000F07DF8812000F07AF8CF2000F077F81D
:104DE000D92000F074F8F12000F071F8DB2000F019
:104DF0006EF8302000F06BF8A42000F068F8A620D0
:104E000000F065F88D2000F062F8142000F05FF8E3
:104E1000AF2000F05CF8BDE81040FFF713BF10B5FD
:104E20000C4640F0B00000F052F8102040EA141098
:104E300000F04DF804F00F00BDE8104000F047B856
:104E40002DE9F0410746CE004000083E801E154681
:104E50004FF0FF38F1B2C0B2FFF7E1FF1148002474
:104E600000EB05152819A0F5805090F8000E00F011
:104E70003FF8641CE4B2082CF4D308EB4700F1B20D
:104E8000C0B2FFF7CCFF00242819A0F5805090F89D
:104E9000080E00F02DF8641CE4B2082CF4D3BDE831
:104EA000F081000050D000082DE9F04115460E4673
:104EB0000746002406E03019C1B23846FFF7C0FFAC
:104EC000641CE4B22A5D002AF5D1BDE8F08110B57A
:104ED0000446FFF725FF7820FFF7F4FE0020FFF7D8
:104EE000F1FE2046FFF7EEFEBDE81040FFF732BFAF
:104EF00010B50446FFF714FF7820FFF7E3FE4020CB
:104F0000FFF7E0FE2046FFF7DDFEBDE81040FFF7AB
:104F100021BF000088B0FFF733FFFFF793FE35A2F3
:104F200002210120FFF7C0FF36A204210220FFF773
:104F3000BBFF37A205210320FFF7B6FF37A20321ED
:104F40000420FFF7B1FF4FF4FA66304606F0DAFDB1
:104F500000F068F9344CB7103A4605A9206807F00C
:104F600037FA012816D006F0A1FF830A2FA21121DB
:104F7000684600F03DFF6A4601210320FFF794FFD9
:104F80002E4800780028E7D02DA201210420FFF749
:104F90008BFFE1E79DED050ADFED2D0A20EE200AEB
:104FA000BCEEC00A10EE100AC5B2FFF74BFE01219D
:104FB00028A20846FFF778FF2AA203210220FFF764
:104FC00073FF2B462AA21121684600F011FF6A46A2
:104FD00001210320FFF768FF304606F093FD002211
:104FE00005A9206807F0F4F90128F8D000F01AF9B3
:104FF000B2E70000414920417373697374616E74B4
:105000000000000053544D33324634303700000066
:105010004672656552544F5300000000426F6F7432
:10502000696E672E2E2E00004C00002048656170CE
:105030003A202025336C75204B42000024000020CC
:105040004D6F64656C3A20526561647920200000E0
:105050000000C8422A2A204465746563746564218F
:10506000202A2A0057616B6520576F726421000067
:10507000436F6E663A202575252500001FB5002078
:1050800003900120009000020190022002906846E7
:10509000FDF726FF002801D072B6FEE71FBDF8B568
:1050A000044640684FF48273984221D1A0684FF4BF
:1050B0008065B0F5004F01D0A8420AD1206806688B
:1050C00026F0400606606068984211D1A068A842A8
:1050D0000ED000920B4600228021204600F044F8BA
:1050E000002804D0606D40F0200060650320F8BD0A
:1050F00000920B4600220121EFE70000F8B51546AB
:105100000E460B46009204460122022100F02CF8C4
:10511000A0B9134813490068B0FBF1F04FF47A715D
:10512000484300906068B0F5827F0DD1334600227D
:1051300080212046009500F017F870B1606D40F0B6
:10514000200060650320F8BD009830B1401E00903B
:1051500020688068C0430006F6D50020F8BD000036
:105160005C00002000366E012DE9F8431E46914692
:1051700088460446089DFDF721FA401B351AFDF7C5
:105180001DFA074626480068C0F3CB3068430AE0A2
:10519000701C09D0FDF712FAC01BA8420FD275B1DE
:1051A0000098B8B3401E00902068816838EA01007A
:1051B00033D000214945EBD10020BDE8F8832068B9
:1051C000416821F0E00141606068B0F5827F0BD159
:1051D000A068B0F5004F02D0B0F5806F04D1206810
:1051E000016821F040010160A06AB0F5005F09D1BB
:1051F0002068016821F4005101602068016841F4D1
:1052000000510160012084F85100002084F8500012
:105210000320D2E7FFE70025C6E70121CAE7000027
:105220005C00002010B586B006F040FE840AFFF74F
:1052300009FD01210FA20846FFF736FE11A2012148
:105240000220FFF731FE234612A21121684600F02A
:10525000CFFD6A4601210320FFF726FE11480078A2
:1052600008B111A200E014A201210420FFF71CFEE6
:1052700006B010BD414920417373697374616E7447
:1052800000000000537461743A204C697374656EB9
:10529000696E6700486561703A202025336C75207F
:1052A0004B420000240000204D6F64656C3A205290
:1052B00065616479202000004D6F64656C3A204977
:1052C0006E69742E2E2E00001CB500F011F8074CEC
:1052D0004FF0FF352A466946206807F079F8012823
:1052E000F8D1DDE9000100F027F8F3E71000002015
:1052F00010B503220021012006F074FE06490028A3
:10530000086007D1502080F31188BFF34F8FBFF39F
:105310006F8FFEE710BD00000C0000201CB50023BD
:10532000CDE9000103481A466946406806F0F2FEDE
:105330001CBD00000C0000202DE9F05F1F4D4FF454
:10534000007905F580640F468046494501D94E46EF
:1053500000E00E467200294600F030FC08EB4608DB
:10536000BF1BB2B229461648FDF73EFC1549CA4696
:105370004FF0FF3B894618E05646B74200D83E46FC
:1053800072002146404600F019FC08EB4608BF1B9E
:105390005946D9F8000007F0B7F8B2B221460848DC
:1053A000FDF722FC284625460446002FE4D1594645
:1053B000D9F80000BDE8F05F07F0A6B8603400201F
:1053C000301D00200C0000202DE9F04704462DED93
:1053D000028B894600691646D4E905758046034666
:1053E0004A461046A168FBF7C7FFA7EB080109EB87
:1053F0008800FAF79DFF00232A4649462068FCF7FB
:105400007DFB95ED000AD5ED010A4FF0FF3020EE4F
:10541000000A00EB570220EEA08A86ED000A311D3B
:1054200005F10800FBF74EFF780806EB800080EDE1
:10543000008A2079002818D10121DFED0E0A01EB46
:10544000570210E006EB800191ED000AB5EEC00AAC
:10545000F1EE10FA04DBB1EEC01A81ED001A01E0A2
:10546000C1ED000A401C8242ECD8BDEC028BBDE8C5
:10547000F087000000000000012005F0F1FAFBE7D2
:1054800010B54FF0E020006907F07EFB012803D043
:10549000BDE8104006F090BD10BD000010B592B000
:1054A00030216846FAF744FF14210CA8FAF740FFB0
:1054B0001E48016821F03F0141F0100101600168C0
:1054C00021F480010160194800243C30016841F05A
:1054D00080510160006800F080501190144801680C
:1054E00041F4804101600068069400F4804011900E
:1054F0000220009001200390102004900794684639
:10550000FDF798FE08B172B6FEE70F20CDE90C0456
:105510000E940F9400210CA81094FDF77FFD002835
:1055200001D072B6FEE712B010BD00000438024090
:10553000007000400248016841F47001016070474A
:1055400088ED00E00148FEF784BB0000D81E002073
:10555000F0B50268274B284D284E294F294C4FF0B3
:10556000804C984209D0604507D0A84205D0B0428F
:1055700003D0B84201D0A04204D122F0700E4A6894
:1055800042EA0E0298421BD0604519D0A84217D0BB
:10559000B04215D0B84213D0A04211D01A4DA84243
:1055A0000ED01A4DA8420BD0194DA84208D0194D63
:1055B000A84205D0184DA84202D0184DA84203D1E8
:1055C00022F44075CA682A434D6922F080022A43BA
:1055D0008D68C5620D688562984201D0A04201D1F4
:1055E00009690163016841F0040101600121416121
:1055F0000260F0BD000001400004004000080040CF
:10560000000C004000040140004001400044014003
:105610000048014000180040001C004000200040ED
:1056200010B5806B0021C185FEF7BAFB10BD016883
:105630000C3151E8002F22F4907241E80023002B36
:10564000F5D10168143151E8002F22F0010241E840
:105650000023002BF5D1016B012909D101680C3120
:1056600051E8002F22F0100241E80023002BF5D171
:10567000202180F8421000210163704708B590F89E
:105680004210222901D0022008BD82684FF48053C5
:105690009A4201D1016921B1816A9A421BD04AB173
:1056A0000AE00268816A5268C2F308020A80816ACD
:1056B000891C08E0026972B10268526802F07F0238
:1056C0000A70816A491C8162C18D491E0904090C56
:1056D000C18503D01BE002685268F1E70168CA681F
:1056E00022F02002CA600168CA6822F48072CA608F
:1056F00001684A6922F001024A61202180F84210C3
:1057000000214163026B012A03D0FEF71DFD00203A
:1057100008BD016301680C3151E8002F22F010022E
:1057200041E80023002BF5D101680A68D20602D5B2
:105730000A6849680091818DFEF731FBE7E70000B8
:1057400070B5044600680169E26821F440511143D4
:1057500001612169A068E269084361691143084356
:105760002168CA6849F20C639A430243CA60206800
:105770004169A26921F440711143416131492068B6
:10578000884202D03049884202D1FDF711FD01E084
:10579000FDF7FEFCE2690023192164253226B2F5EB
:1057A000004F626828D0A0FB0101930F9200FAF726
:1057B00067FD0146B0FBF5F06FF01802504301EBB6
:1057C000800006EB0010B0FBF5F000F0F002B1FB3A
:1057D000F5F002EB0012B1FBF5F06FF0180358433F
:1057E00001EB800006EB0010B0FBF5F000F00F00BD
:1057F00021681044886070BDA0FB010192185B41D4
:10580000FAF73EFD0146B0FBF5F00201B1FBF5F001
:105810006FF01803584301EB800006EBC000B0FBAB
:10582000F5F000F0F80002EB4002B1FBF5F0584350
:1058300001EB800006EBC000B0FBF5F000F00700C4
:10584000D6E70000001001400014014010B500220E
:105850000121802006F014FF0849486028B1BDE806
:10586000104001220648FEF761BC502080F31188E9
:10587000BFF34F8FBFF36F8FFEE7000014000020CF
:10588000901E002081628285C28500214164222110
:1058900080F84210016921B10168CA6842F480723F
:1058A000CA6001684A6942F001024A610068C16841
:1058B00041F02001C160002070472DE9F84398466F
:1058C00017460D460446089E24E0701C22D0FCF7C3
:1058D00075FEA0EB0800B0421AD8CEB12068C168AE
:1058E000490717D5802D15D0402D13D00168C94325
:1058F00009070FD401680025406800902046FFF793
:1059000096FE0820606484F840500120BDE8F883CA
:105910000320FBE72068006835EA000004D000207F
:10592000B842D2D00020F1E70120F9E70148FEF7A4
:105930004DBA0000901E0020002492B0254628A0F9
:1059400000F046FA2BA000F043FA32A000F040FA33
:10595000314F661EE8463346012210A9386806F02A
:10596000C5FE0028F7D09DF840000A2802D00D2877
:1059700003D004E01DB10025EDE7012500E000257E
:105980003346012210A92548FEF708FC9DF8400087
:105990000D280CD00A280AD0082818D07F2816D045
:1059A0003F2CD8D208F80400641CE4B2D3E71CA052
:1059B00000F00EFA002108F80410684602F0D8FE44
:1059C0001848002400780028C5D112A004E0002C5B
:1059D000C1D0641EE4B214A000F0FAF9BBE70000E5
:1059E0002020412073696D706C6520434C490D0A7D
:1059F00000000000202054797065202768656C70D5
:105A00002720666F7220636F6D6D616E64730D0A7F
:105A1000000000003E20000018000020901E002022
:105A20000D0A00001C00002020080000FEE7000016
:105A300010B500224FF4A071042006F0D3FA2B49D0
:105A40000860C8B32A4A00212A4805F045F82A4CC4
:105A50002A49274A2060086024320021284805F09E
:105A60003BF86060FFF7F2FE214A002148322548EA
:105A700005F032F8A06000220421022006F0B2FAFC
:105A80002149086008B31A4A00216C321F4805F00A
:105A900023F8E06000F040F800220821022006F020
:105AA000A1FA1B490860C0B1114A0021903219487F
:105AB00005F012F8206110BDFFE7502080F3118837
:105AC000BFF34F8FBFF36F8FFEE7502080F3118835
:105AD000BFF34F8FBFF36F8FFEE7502080F3118825
